{
  "contractName": "Advertisement",
  "abi": [
    {
      "inputs": [
        {
          "internalType": "string",
          "name": "new_image",
          "type": "string"
        },
        {
          "internalType": "string",
          "name": "new_text",
          "type": "string"
        }
      ],
      "name": "updateAdvertisement",
      "outputs": [
        {
          "internalType": "string",
          "name": "",
          "type": "string"
        },
        {
          "internalType": "string",
          "name": "",
          "type": "string"
        },
        {
          "internalType": "uint256",
          "name": "",
          "type": "uint256"
        }
      ],
      "stateMutability": "payable",
      "type": "function",
      "payable": true
    }
  ],
  "bytecode": "0x60806040526040518060400160405280601f81526020017f68747470733a2f2f7669612e706c616365686f6c6465722e636f6d2f313530008152506000908051906020019061004f9291906100b3565b506040518060400160405280601081526020017f506c616365686f6c6465722074657874000000000000000000000000000000008152506001908051906020019061009b9291906100b3565b5060006002553480156100ad57600080fd5b506101b7565b8280546100bf90610156565b90600052602060002090601f0160209004810192826100e15760008555610128565b82601f106100fa57805160ff1916838001178555610128565b82800160010185558215610128579182015b8281111561012757825182559160200191906001019061010c565b5b5090506101359190610139565b5090565b5b8082111561015257600081600090555060010161013a565b5090565b6000600282049050600182168061016e57607f821691505b6020821081141561018257610181610188565b5b50919050565b7f4e487b7100000000000000000000000000000000000000000000000000000000600052602260045260246000fd5b610629806101c66000396000f3fe60806040526004361061001e5760003560e01c8063429f884a14610023575b600080fd5b61003d6004803603810190610038919061030a565b610055565b60405161004c93929190610424565b60405180910390f35b6060806000600254341161009e576040517f08c379a000000000000000000000000000000000000000000000000000000000815260040161009590610469565b60405180910390fd5b84600090805190602001906100b49291906101ff565b5083600190805190602001906100cb9291906101ff565b5034600281905550600060016002548280546100e690610552565b80601f016020809104026020016040519081016040528092919081815260200182805461011290610552565b801561015f5780601f106101345761010080835404028352916020019161015f565b820191906000526020600020905b81548152906001019060200180831161014257829003601f168201915b5050505050925081805461017290610552565b80601f016020809104026020016040519081016040528092919081815260200182805461019e90610552565b80156101eb5780601f106101c0576101008083540402835291602001916101eb565b820191906000526020600020905b8154815290600101906020018083116101ce57829003601f168201915b505050505091509250925092509250925092565b82805461020b90610552565b90600052602060002090601f01602090048101928261022d5760008555610274565b82601f1061024657805160ff1916838001178555610274565b82800160010185558215610274579182015b82811115610273578251825591602001919060010190610258565b5b5090506102819190610285565b5090565b5b8082111561029e576000816000905550600101610286565b5090565b60006102b56102b0846104ba565b610489565b9050828152602081018484840111156102cd57600080fd5b6102d8848285610510565b509392505050565b600082601f8301126102f157600080fd5b81356103018482602086016102a2565b91505092915050565b6000806040838503121561031d57600080fd5b600083013567ffffffffffffffff81111561033757600080fd5b610343858286016102e0565b925050602083013567ffffffffffffffff81111561036057600080fd5b61036c858286016102e0565b9150509250929050565b6000610381826104ea565b61038b81856104f5565b935061039b81856020860161051f565b6103a4816105e2565b840191505092915050565b60006103bc602d836104f5565b91507f5061796d656e74206d7573742062652067726561746572207468616e2074686560008301527f206c6973746564207072696365000000000000000000000000000000000000006020830152604082019050919050565b61041e81610506565b82525050565b6000606082019050818103600083015261043e8186610376565b905081810360208301526104528185610376565b90506104616040830184610415565b949350505050565b60006020820190508181036000830152610482816103af565b9050919050565b6000604051905081810181811067ffffffffffffffff821117156104b0576104af6105b3565b5b8060405250919050565b600067ffffffffffffffff8211156104d5576104d46105b3565b5b601f19601f8301169050602081019050919050565b600081519050919050565b600082825260208201905092915050565b6000819050919050565b82818337600083830152505050565b60005b8381101561053d578082015181840152602081019050610522565b8381111561054c576000848401525b50505050565b6000600282049050600182168061056a57607f821691505b6020821081141561057e5761057d610584565b5b50919050565b7f4e487b7100000000000000000000000000000000000000000000000000000000600052602260045260246000fd5b7f4e487b7100000000000000000000000000000000000000000000000000000000600052604160045260246000fd5b6000601f19601f830116905091905056fea2646970667358221220f6ec31d27bab719ef90e7b5fba863757f80f14eeaa08329ffc247b7a373b302f64736f6c63430008000033",
  "immutableReferences": {},
  "source": "pragma solidity ^0.8.0;\r\n\r\ncontract Advertisement {\r\n    string private image_url = \"https://via.placeholder.com/150\";\r\n    string private text = \"Placeholder text\";\r\n    uint private price = 0; // First user can upload their image for free (+gas);\r\n\r\n    function updateAdvertisement(string memory new_image, string memory new_text) public payable returns(string memory, string memory, uint) {\r\n        require(msg.value > price, \"Payment must be greater than the listed price\");\r\n        \r\n        image_url = new_image;\r\n        text = new_text;\r\n        price = msg.value;\r\n\r\n        return (image_url, text, price);\r\n    }\r\n}",
  "sourcePath": "C:\\Users\\vorte\\Documents\\Solidity\\Advertisement_Auction\\contracts\\Advertisement.sol",
  "compiler": {
    "name": "solc",
    "version": "0.8.0+commit.c7dfd78e.Emscripten.clang"
  },
  "schemaVersion": "3.4.4",
  "updatedAt": "2022-02-09T03:20:23.725Z",
  "networkType": "ethereum",
  "devdoc": {
    "kind": "dev",
    "methods": {},
    "version": 1
  },
  "userdoc": {
    "kind": "user",
    "methods": {},
    "version": 1
  }
}