{
  "contractName": "Advertisement",
  "abi": [
    {
      "inputs": [
        {
          "internalType": "string",
          "name": "new_image",
          "type": "string"
        },
        {
          "internalType": "string",
          "name": "new_text",
          "type": "string"
        }
      ],
      "name": "updateAdvertisement",
      "outputs": [],
      "stateMutability": "payable",
      "type": "function",
      "payable": true
    },
    {
      "inputs": [],
      "name": "getAdvertisement",
      "outputs": [
        {
          "internalType": "string",
          "name": "",
          "type": "string"
        },
        {
          "internalType": "string",
          "name": "",
          "type": "string"
        },
        {
          "internalType": "uint256",
          "name": "",
          "type": "uint256"
        }
      ],
      "stateMutability": "view",
      "type": "function",
      "constant": true
    }
  ],
  "bytecode": "0x60806040526040518060600160405280602e8152602001610806602e913960009080519060200190610032929190610079565b506040518060600160405280602e81526020016107d8602e913960019080519060200190610061929190610079565b50600060025534801561007357600080fd5b5061017d565b8280546100859061011c565b90600052602060002090601f0160209004810192826100a757600085556100ee565b82601f106100c057805160ff19168380011785556100ee565b828001600101855582156100ee579182015b828111156100ed5782518255916020019190600101906100d2565b5b5090506100fb91906100ff565b5090565b5b80821115610118576000816000905550600101610100565b5090565b6000600282049050600182168061013457607f821691505b602082108114156101485761014761014e565b5b50919050565b7f4e487b7100000000000000000000000000000000000000000000000000000000600052602260045260246000fd5b61064c8061018c6000396000f3fe6080604052600436106100295760003560e01c80633ccad62a1461002e578063429f884a1461005b575b600080fd5b34801561003a57600080fd5b50610043610077565b60405161005293929190610447565b60405180910390f35b6100756004803603810190610070919061032d565b6101a5565b005b606080600080600160025482805461008e90610575565b80601f01602080910402602001604051908101604052809291908181526020018280546100ba90610575565b80156101075780601f106100dc57610100808354040283529160200191610107565b820191906000526020600020905b8154815290600101906020018083116100ea57829003601f168201915b5050505050925081805461011a90610575565b80601f016020809104026020016040519081016040528092919081815260200182805461014690610575565b80156101935780601f1061016857610100808354040283529160200191610193565b820191906000526020600020905b81548152906001019060200180831161017657829003601f168201915b50505050509150925092509250909192565b60025434116101e9576040517f08c379a00000000000000000000000000000000000000000000000000000000081526004016101e09061048c565b60405180910390fd5b81600090805190602001906101ff929190610222565b508060019080519060200190610216929190610222565b50346002819055505050565b82805461022e90610575565b90600052602060002090601f0160209004810192826102505760008555610297565b82601f1061026957805160ff1916838001178555610297565b82800160010185558215610297579182015b8281111561029657825182559160200191906001019061027b565b5b5090506102a491906102a8565b5090565b5b808211156102c15760008160009055506001016102a9565b5090565b60006102d86102d3846104dd565b6104ac565b9050828152602081018484840111156102f057600080fd5b6102fb848285610533565b509392505050565b600082601f83011261031457600080fd5b81356103248482602086016102c5565b91505092915050565b6000806040838503121561034057600080fd5b600083013567ffffffffffffffff81111561035a57600080fd5b61036685828601610303565b925050602083013567ffffffffffffffff81111561038357600080fd5b61038f85828601610303565b9150509250929050565b60006103a48261050d565b6103ae8185610518565b93506103be818560208601610542565b6103c781610605565b840191505092915050565b60006103df602d83610518565b91507f5061796d656e74206d7573742062652067726561746572207468616e2074686560008301527f206c6973746564207072696365000000000000000000000000000000000000006020830152604082019050919050565b61044181610529565b82525050565b600060608201905081810360008301526104618186610399565b905081810360208301526104758185610399565b90506104846040830184610438565b949350505050565b600060208201905081810360008301526104a5816103d2565b9050919050565b6000604051905081810181811067ffffffffffffffff821117156104d3576104d26105d6565b5b8060405250919050565b600067ffffffffffffffff8211156104f8576104f76105d6565b5b601f19601f8301169050602081019050919050565b600081519050919050565b600082825260208201905092915050565b6000819050919050565b82818337600083830152505050565b60005b83811015610560578082015181840152602081019050610545565b8381111561056f576000848401525b50505050565b6000600282049050600182168061058d57607f821691505b602082108114156105a1576105a06105a7565b5b50919050565b7f4e487b7100000000000000000000000000000000000000000000000000000000600052602260045260246000fd5b7f4e487b7100000000000000000000000000000000000000000000000000000000600052604160045260246000fd5b6000601f19601f830116905091905056fea2646970667358221220677d4d4bedadf9a0766616d6cd5bf2040fd444feeef904ae2ef50795fc9feec264736f6c63430008000033516d665074554c3676425644517448376a33785842484355633951525762384e387337426f616a72427132336841516d624c456277444d617571714a375671323433356570566231323656516278525267506a5772466f7a6d4e5348",
  "immutableReferences": {},
  "source": "pragma solidity ^0.8.0;\r\n\r\ncontract Advertisement {\r\n    // Default data is IPFS hash to keep consistent with standard program use.\r\n    string private image_url = \"QmbLEbwDMauqqJ7Vq2435epVb126VQbxRRgPjWrFozmNSH\";\r\n    string private text = \"QmfPtUL6vBVDQtH7j3xXBHCUc9QRWb8N8s7BoajrBq23hA\";\r\n    uint private price = 0;\r\n\r\n    function updateAdvertisement(string memory new_image, string memory new_text) public payable {\r\n        require(msg.value > price, \"Payment must be greater than the listed price\");\r\n        \r\n        image_url = new_image;\r\n        text = new_text;\r\n        price = msg.value;\r\n    }\r\n\r\n    function getAdvertisement() public view returns(string memory, string memory, uint) {\r\n        return (image_url, text, price);\r\n    }\r\n}",
  "sourcePath": "C:\\Users\\vorte\\Documents\\Solidity\\Advertisement_Auction\\contracts\\Advertisement.sol",
  "compiler": {
    "name": "solc",
    "version": "0.8.0+commit.c7dfd78e.Emscripten.clang"
  },
  "schemaVersion": "3.4.4",
  "updatedAt": "2022-03-16T02:03:11.146Z",
  "networkType": "ethereum",
  "devdoc": {
    "kind": "dev",
    "methods": {},
    "version": 1
  },
  "userdoc": {
    "kind": "user",
    "methods": {},
    "version": 1
  }
}